:100000000C9475000C949D000C949D000C949D0024
:100010000C949D000C949D000C949D000C949D00EC
:100020000C949D000C949D000C949D000C9466040F
:100030000C949D000C949D000C949D000C949D00CC
:100040000C94C4030C949D000C9434040C940E0482
:100050000C949D000C949D000C949D000C949D00AC
:100060000C949D000C949D00BB06BB06C106CD06FA
:10007000D706E306AB06AB06AB06AB06CD06D70646
:10008000E306740777077A077D07800783078607EB
:1000900089078C078F0792070000000024002700C3
:1000A0002A0000000000250028002B00040404049E
:1000B0000404040402020202020203030303030312
:1000C00001020408102040800102040810200102EF
:1000D00004081020000000080002010000030407CB
:1000E0000000000000000000270511241FBECFEF14
:1000F000D8E0DEBFCDBF11E0A0E0B1E0E0E4F0E188
:1001000002C005900D92A432B107D9F723E0A4E212
:10011000B1E001C01D92A035B207E1F710E0C5E7DC
:10012000D0E004C02197FE010E941308C437D10714
:10013000C9F70E94B3050C941E080C940000CF92DE
:10014000DF92EF92FF926B017C01E0914201F0910E
:10015000430182E08083C11481EED806E104F104FA
:10016000B1F060E079E08DE390E0A70196010E9494
:10017000D607DA01C9010197A109B109B695A7957A
:10018000979587959C01211580E13807B8F0E0919B
:100190004201F0914301108260E874E88EE190E042
:1001A000A70196010E94D607DA01C9010197A109AA
:1001B000B109B695A795979587959C01E0913E0169
:1001C000F0913F013083E0914001F09141012083A3
:1001D00010924A01E0914601F091470186E0808348
:1001E000E0914401F0914501808180618083E0913C
:1001F0004401F0914501808188608083E091440151
:10020000F0914501808180688083E0914401F09104
:10021000450180818F7D8083FF90EF90DF90CF90AC
:10022000089590E0FC01EC52FF4F2491FC01E05452
:10023000FF4F3491FC01E455FF4FE491EE2309F4A4
:100240003CC0222339F1233091F038F42130A9F059
:10025000223001F584B58F7D12C0273091F028300F
:10026000A1F02430B9F4809180008F7D03C080918B
:1002700080008F77809380000DC084B58F7784BD18
:1002800009C08091B0008F7703C08091B0008F7D4E
:100290008093B000F0E0EE0FFF1FEE55FF4FA591E9
:1002A000B4919FB7F894611104C08C9130953823B4
:1002B00002C0EC913E2B3C939FBF0895CF92DF92FA
:1002C000EF92FF920F931F93CF93DF936C017A010C
:1002D0008B01C0E0D0E0CE15DF0581F0D8016D9133
:1002E0008D01D601ED91FC910190F081E02DC601C8
:1002F0000995892B11F02196EECF7E01C701DF9180
:10030000CF911F910F91FF90EF90DF90CF900895C4
:10031000089580E090E00895FC01538D448D252FD1
:1003200030E0842F90E0821B930B541710F0CF968F
:10033000089501970895FC01918D828D981761F0C1
:10034000828DDF01A80FB11D5D968C91928D9F5F0C
:100350009F73928F90E008958FEF9FEF0895FC01B7
:10036000918D828D981731F0828DE80FF11D858D6A
:1003700090E008958FEF9FEF0895FC01918D228DFD
:10038000892F90E0805C9F4F821B91098F73992782
:10039000089582E391E00E94BD0121E0892B09F4D8
:1003A00020E0822F0895FC01848DDF01A80FB11D8C
:1003B000A35ABF4F2C91848D90E001968F7399279B
:1003C000848FA689B7892C93A089B1898C91837079
:1003D00080648C93938D848D981306C00288F38972
:1003E000E02D80818F7D80830895EF92FF920F939F
:1003F0001F93CF93DF93EC0181E0888F9B8D8C8DD1
:10040000981305C0E889F989808185FD26C0F62EFC
:100410000B8D10E00F5F1F4F0F731127E02E8C8D97
:10042000E8120CC00FB607FCFACFE889F989808181
:1004300085FFF5CFCE010E94D301F1CF8B8DFE0158
:10044000E80FF11DE35AFF4FF0829FB7F8940B8F2E
:10045000EA89FB89808180620AC09FB7F894EE899F
:10046000FF896083E889F989808183708064808353
:100470009FBF81E090E0DF91CF911F910F91FF909E
:10048000EF900895CF93DF93EC01888D8823C9F016
:10049000EA89FB89808185FD05C0A889B9898C918D
:1004A00086FD0FC00FB607FCF5CF808185FFF2CF28
:1004B000A889B9898C9185FFEDCFCE010E94D30127
:1004C000E7CFDF91CF91089580E090E0892B29F06C
:1004D0000E94C90181110C9400000895CF92DF920F
:1004E000EF92FF92CF93DF93EC01603282E07807C6
:1004F0000CF03DC077FD06C0653B71052CF064EB48
:1005000070E002C060E070E0898128E830E06901B5
:10051000C81AD10887FDD394CC0CDD1CCC0CDD1C93
:100520000D2C000CEE08FF088A8128E532E0281B1C
:10053000310987FD3395220F331F220F331FC90165
:10054000330FAA0BBB0B9C01AD012C193D094E09C1
:100550005F09DB010E94CE0724EB30E040E050E071
:100560000E94A407C20ED31EE41EF51EB6013881F8
:100570003C3080F5298188E890E0821B910927FDB5
:100580009395880F991F880F991F6817790784F032
:100590008A8148E552E0481B510987FD5395440F75
:1005A000551F440F551FCB01461757070CF4CA01BE
:1005B0000297880F991F4FB7F894232F30E0F90165
:1005C000EE0FFF1F2E0F3F1FF901E153FE4F9283E5
:1005D00081834FBFDF91CF91FF90EF90DF90CF905D
:1005E0000895FC01208131816217730734F0228164
:1005F0003381621773070CF49B01B90104960C94C4
:100600006E02CF92DF92EF92FF920F931F93CF93E0
:10061000DF93DC01EB016091000170910101CB01DE
:10062000019690930101809300018D010C5F1F4F93
:1006300014968C9114978C3008F075C0CB019927D3
:10064000FC01E054FF4FD490FC01E455FF4FE491CE
:10065000EE23A9F0F0E0CF01880F991FFC01E856C6
:10066000FF4FE590F490FC01EE55FF4F859194917A
:100670008FB7F894F7019081D92AD0828FBF149652
:100680008C911497E82FF0E07F01EE0CFF1CEE0D2B
:10069000FF1DE153FE4F6F739081907C692B608347
:1006A00015961C92159716961C9216976CE00E9450
:1006B0000708FCE08F9F60011124E12CF12CB601AA
:1006C0006E0D7F1DFB01EE0FFF1F6E0F7F1FFB01E5
:1006D000E153FE4F908196FD18C09FEFE91AF90A89
:1006E000ECE0EE16F10459F781110FC01092800072
:1006F00082E0809381001092850010928400B19A6C
:1007000080916F00826080936F001496EC91149733
:10071000F0E0CF01880F991FE80FF91FE153FE4F5A
:1007200080818064808311965C934E9312962C9303
:10073000129713963C93C417D50734F0B901C2172A
:10074000D3071CF4BE0101C0BA01C801DF91CF91EB
:100750001F910F91FF90EF90DF90CF900C946E025D
:10076000009769F0FC0101900020E9F73197AF0193
:10077000481B590BBC0182E391E00C945E0180E0C0
:1007800090E008950E9419081F920F920FB60F92E1
:1007900011242F933F938F939F93AF93BF93809197
:1007A0002E0190912F01A0913001B0913101309133
:1007B0002D0123E0230F2D3720F40196A11DB11D3B
:1007C00005C026E8230F0296A11DB11D20932D011F
:1007D00080932E0190932F01A0933001B0933101AB
:1007E0008091290190912A01A0912B01B0912C01B7
:1007F0000196A11DB11D8093290190932A01A09318
:100800002B01B0932C01BF91AF919F918F913F919C
:100810002F910F900FBE0F901F9018951F920F925F
:100820000FB60F9211242F933F934F935F936F93C3
:100830007F938F939F93AF93BF93EF93FF9382E345
:1008400091E00E94D301FF91EF91BF91AF919F91F1
:100850008F917F916F915F914F913F912F910F9069
:100860000FBE0F901F9018951F920F920FB60F9208
:1008700011242F938F939F93EF93FF93E091420165
:10088000F09143018081E0914801F091490182FD9E
:1008900012C0908180914B018F5F8F7320914C012A
:1008A000821751F0E0914B01F0E0EE5CFE4F958F26
:1008B00080934B0101C08081FF91EF919F918F91B7
:1008C0002F910F900FBE0F901F9018951F920F92AF
:1008D0000FB60F9211242F933F934F935F936F9313
:1008E0007F938F939F93AF93BF93EF93FF938091E9
:1008F000240187FF05C010928500109284001BC060
:1009000020912401022E000C330B8091F30190E022
:100910002817390784F480912401082E000C990BC4
:10092000FC01EE0FFF1F8E0F9F1FFC01E153FE4FD6
:10093000808186FD15C0809124018F5F8093240102
:1009400020912401022E000C330B8091F30190E0E2
:1009500028173907C4F4809124018C3064F113C046
:1009600080912401082E000C990BFC01EE0FFF1F53
:100970008E0F9F1FFC01E153FE4F808160E08F735B
:100980000E941101D8CF8091840090918500049637
:1009900080349C4918F480E49CE905C0809184006F
:1009A00090918500049690938900809388008FEF42
:1009B000809324013BC02091840030918500809178
:1009C0002401082E000C990BFC01EE0FFF1F8E0F67
:1009D0009F1FFC01E153FE4F81819281820F931F83
:1009E000909389008093880080912401082E000C48
:1009F000990BFC01EE0FFF1F8E0F9F1FFC01E153AF
:100A0000FE4F808186FF12C080912401082E000CC9
:100A1000990BFC01EE0FFF1F8E0F9F1FFC01E1538E
:100A2000FE4F808161E08F730E941101FF91EF9171
:100A3000BF91AF919F918F917F916F915F914F91F6
:100A40003F912F910F900FBE0F901F901895CF934D
:100A5000DF93109235011092340188EE93E0A0E00C
:100A6000B0E08093360190933701A0933801B093A2
:100A700039018AE091E0909333018093320185EC53
:100A800090E090933F0180933E0184EC90E090933E
:100A900041018093400180EC90E09093430180936A
:100AA000420181EC90E0909345018093440182ECF7
:100AB00090E0909347018093460186EC90E09093FC
:100AC00049018093480110924B0110924C01109201
:100AD0004D0110924E01ACEFB2E0409102015091F5
:100AE000030160910401709105012FEFC8EBDBE079
:100AF0004D935D936D937C9313978091F3018C30AC
:100B000098F491E0980F9093F30114968C931497B6
:100B100090E0FC01EE0FFF1F8E0F9F1FFC01E153C1
:100B2000FE4FD283C18303C014962C93149717965B
:100B300083E0A035B807E1F680E492E4AFE0B0E0EE
:100B40008093F4019093F501A093F601B093F7011F
:100B500080E88093F8018FEF8093F9011092FA02F8
:100B6000DF91CF910895CF93DF93CDB7DEB7A197F3
:100B70000FB6F894DEBF0FBECDBF789484B5826007
:100B800084BD84B5816084BD85B5826085BD85B531
:100B9000816085BD80916E00816080936E001092AF
:100BA000810080918100826080938100809181002A
:100BB00081608093810080918000816080938000BB
:100BC0008091B10084608093B1008091B000816019
:100BD0008093B00080917A00846080937A00809145
:100BE0007A00826080937A0080917A00816080939D
:100BF0007A0080917A00806880937A001092C10018
:100C00006091F4017091F5018091F6019091F701E6
:100C10000E949F0082E390E0A0E0B0E08093360164
:100C200090933701A0933801B093390160E472E4E6
:100C30008FE090E00E949F0082E391E00E944202D8
:100C400026E930E040E050E064EB70E08AE093E0B9
:100C50000E94010326E930E040E050E064EB70E0E0
:100C600081E193E00E94010326E930E040E050E09A
:100C700064EB70E08CEF92E00E94010326E930E023
:100C800040E050E064EB70E083E093E00E940103F9
:100C90002FEA30E045E050E060E070E088E193E06A
:100CA0000E9401032FEA30E045E050E060E070E090
:100CB0008FE193E00E9401032FEA30E045E050E02D
:100CC00060E070E086E293E00E9401032FEA30E0EA
:100CD00045E050E060E070E08DE293E00E940103A7
:100CE0002DE730E047E350E060E070E084E393E01C
:100CF0000E9401032DE730E047E350E060E070E040
:100D00008BE393E00E94010326E930E040E050E0ED
:100D100064EB70E082E493E00E94010326E930E096
:100D200040E050E060E070E089E493E00E9401035D
:100D300099249A946AE0462E512C612C712C74EB04
:100D4000A72EB12C9092F901D12CC12C52E0E52EA6
:100D5000F12C00E010E082E391E00E949B018F3FC4
:100D60002FEF9207C1F30D301105A8F7F801EC5CE5
:100D7000FF4F0C94130899278F3F910509F042C04B
:100D80001FC09C0133272F3F310529F39092F901B1
:100D9000D090F801D81236C0D3C07C01FF24825015
:100DA0008093FA0282E0E816F10454F42BC0A1E02B
:100DB000EA1AF1080430110511F48093F901C80E04
:100DC0000F5F1F4FC8CFB1E0EB1AF1081E141F04CC
:100DD0006CF40530110541F4E091FA02F0E0EE19EF
:100DE000FF09EC50FE4F8683C80EB5CF8093FB02FF
:100DF0009091FA029E5F9C0D9D0D9095981721F0A1
:100E00009092F9011092FA028091F9018F3F09F452
:100E100094C0833009F091C08091FA0290E09093E1
:100E200028018093270104EF11E078012091270128
:100E300030912801C701845F91408217930744F5E0
:100E400088E191E00E94B003F701268130E040E0A4
:100E500050E019A26E01F1E2CF0ED11CCA01B90116
:100E6000A30192010E94D607605DD6016E936D01C9
:100E7000211531054105510589F7CD010E94B003C7
:100E800080E291E00E94B003BFEFEB1AFB0ACECFE5
:100E9000E0912501F091260180E090E0C12CD12C59
:100EA000760182179307A4F4181619062CF0D801BE
:100EB0001696EC91F0E008C0FE2CED2CDC2CCC2436
:100EC000D80116964C91C42A01960F5F1F4FE9CFA7
:100ED000F0932601E0932501EB30F10570F5EF5B0F
:100EE000FF4FB6010C9413088CEF92E024C083E00E
:100EF00093E021C08AE093E01EC081E193E01BC033
:100F000088E193E018C08FE193E015C086E293E09A
:100F100012C08DE293E00FC084E393E00CC08BE33A
:100F200093E009C082E493E00E94F102B5016C19DC
:100F30007D0989E493E00E94F1020E94640202CFDD
:100F4000C12C03E010E007CF052E97FB1EF40094A0
:100F50000E94BB0757FD07D00E94D60707FC03D0AD
:100F60004EF40C94BB0750954095309521953F4F1A
:100F70004F4F5F4F089590958095709561957F4F85
:100F80008F4F9F4F08950E94F807A59F900DB49F23
:100F9000900DA49F800D911D11240895B7FF0C940E
:100FA000C3070E94C307821B930B0895A1E21A2E68
:100FB000AA1BBB1BFD010DC0AA1FBB1FEE1FFF1FFD
:100FC000A217B307E407F50720F0A21BB30BE40B4D
:100FD000F50B661F771F881F991F1A9469F7609594
:100FE0007095809590959B01AC01BD01CF0108954E
:100FF000A29FB001B39FC001A39F700D811D11245A
:10100000911DB29F700D811D1124911D0895991B92
:1010100079E004C0991F961708F0961B881F7A95EF
:10102000C9F780950895EE0FFF1F0590F491E02D0C
:10103000099481E090E0F8940C941E08F894FFCF96
:1010400002000500AF0000000000F5015E018C0108
:101050004202BD019B01AF0176616C6F723A2000C4
:041060000D0A000075
:107E0000112484B714BE81FFF0D085E080938100F7
:107E100082E08093C00088E18093C10086E0809377
:107E2000C20080E18093C4008EE0C9D0259A86E02C
:107E300020E33CEF91E0309385002093840096BBD3
:107E4000B09BFECF1D9AA8958150A9F7CC24DD24C4
:107E500088248394B5E0AB2EA1E19A2EF3E0BF2EE7
:107E6000A2D0813461F49FD0082FAFD0023811F036
:107E7000013811F484E001C083E08DD089C08234E0
:107E800011F484E103C0853419F485E0A6D080C0E4
:107E9000853579F488D0E82EFF2485D0082F10E0AE
:107EA000102F00270E291F29000F111F8ED06801E7
:107EB0006FC0863521F484E090D080E0DECF843638
:107EC00009F040C070D06FD0082F6DD080E0C81688
:107ED00080E7D80618F4F601B7BEE895C0E0D1E017
:107EE00062D089930C17E1F7F0E0CF16F0E7DF06D8
:107EF00018F0F601B7BEE89568D007B600FCFDCFD4
:107F0000A601A0E0B1E02C9130E011968C91119780
:107F100090E0982F8827822B932B1296FA010C0160
:107F200087BEE89511244E5F5F4FF1E0A038BF0790
:107F300051F7F601A7BEE89507B600FCFDCF97BE46
:107F4000E89526C08437B1F42ED02DD0F82E2BD052
:107F50003CD0F601EF2C8F010F5F1F4F84911BD097
:107F6000EA94F801C1F70894C11CD11CFA94CF0C13
:107F7000D11C0EC0853739F428D08EE10CD085E9AC
:107F80000AD08FE07ACF813511F488E018D01DD067
:107F900080E101D065CF982F8091C00085FFFCCF94
:107FA0009093C60008958091C00087FFFCCF809118
:107FB000C00084FD01C0A8958091C6000895E0E648
:107FC000F0E098E1908380830895EDDF803219F02E
:107FD00088E0F5DFFFCF84E1DECF1F93182FE3DFCA
:107FE0001150E9F7F2DF1F91089580E0E8DFEE27F6
:047FF000FF270994CA
:027FFE00040479
:0400000300007E007B
:00000001FF
